:1006FF000237000002390000053FCF148A6700055A
:10070F0044AF0CE28D0005492F1CBDE700054E8F4D
:04071F003BC1E700F3
:1006C6005389F0438901758A9C758CFFC28DD28C43
:1006D600D2AFD2A9758921759840758DE6858D8B27
:1006E600758780D2AFD2ACD28EC295120612120096
:0906F6000312077E7F4102058416
:03000B000206509A
:10065000C0E0C0D0758A9C758CFFC28DD28C053AE3
:10066000E53A70020539C39538E53995375004D21B
:10067000A78002C2A7C3E53A94C8E53994004006B2
:0B068000753900753A00D0D0D0E03290
:10075600EFD39400400F7E017D8E7C02DCFEDDFA35
:05076600DEF61F80EB30
:01076B00226B
:08079D007F027E27DEFEDFFC77
:0107A5002231
:0907A6001206C612073F0204AA64
:1004AA007B007A00793B7F5212051FEF70F2FB7ACC
:1004BA0000793212042FEF70E778327C00FDFB7A64
:1004CA0000793F12020CEF603678327C007D007BA7
:1004DA00007A00794412020CEF602478327C007DA5
:1004EA00007B007A00794912020CEF601278327CA4
:1004FA00007D007B007A00794E12020CEF70A11287
:10050A00073F75370075380A7FDC120756753700C2
:05051A00753814808B10
:10073F007D027C327B02C29512079DD29512079DD6
:06074F00DBF4DCF0DDEC40
:010755002281
:08051F008F088B098A0A890B81
:1005270012076C7D077F0D12068B7D037F14120760
:100537009085080E75250175260075270075280E0C
:10054700752900752A00752B0C7B007A00790E7FC0
:100557000C120229EF7023E50D6410450C701BABDC
:1005670009AA0AA90BE50E12003BAB09AA0AA90BB7
:0C057700900001E50F12004D80027FFE95
:010583002255
:06042F008B088A09890A0E
:10043500E4F50C12076CE4FD7F0D12068B7D807FC1
:100445000E120770750F937510207525027526001D
:1004550075270075280F752900752A00752B0D7BEA
:10046500007A00790F7F0C1202298F0BE50B702B98
:10047500FF740F2FF8E6AB08AA09A90A8F827583C6
:100485000012004D740F2FF8E6620C0FBF04E274E2
:100495000F2FF8E6650C6003750BFE7D807F0E124D
:0404A5000790AF0B02
:0104A9002230
:10061200D2A400C2A400D2A4007D0F7F0112068BD7
:10062200007D3D7F1112068B7D1E7F2D12068BE40D
:10063200FD7F2C12068B7D8D7F2A12068B7D3E7FDD
:0E0642002B12068B7D407F1512068B7F002247
:10058400EF6441704012076C7D3D7F1112068B7D34
:10059400867F1712068B7D7F7F2612068B7D1E7F3A
:1005A4002D12068BE4FD7F2C12068B7D8D7F2A1283
:1005B400068B7D3E7F2B12068B7F017E0012072463
:0B05C40012077E80037FFF227F0022D1
:0605CF00AC07AB05E4FEE1
:1005D500E4FEC2A1C2A0EF25E0547E4480FF7D0861
:1005E500EF30E703D38001C392A2D2A1EF25E0FF4C
:1005F500C2A1DDEC7D08D2A1EE25E0FEA2A3E43385
:0C0605004206C2A1DDF0D2A0D2A1AF06D7
:0106110022C6
:10068B00C2A1C2A0EF25E0547EFF7E08EF30E70346
:10069B00D38001C392A2D2A1EF25E0FFC2A1DEEC71
:1006AB007E08ED30E703D38001C392A2D2A1ED25E2
:0A06BB00E0FDC2A1DEECD2A0D2A146
:0106C5002212
:0D0790001205CFAE07AF04EB4EFD02068B45
:04076C007D087F087D
:0E0770001205CFAE07AF04EBF45EFD02068B60
:080229008F218B228A23892416
:10023100752CFEE4F52DF52EE52124F4600C24FE49
:10024100700E752D12752E108006752D77752E3056
:10025100E52D4480FD7F0212068B7D807F0412070D
:1002610070E4FD7F0112068B7D807F0A120790E406
:10027100F530F531C3E5319525E5309400501FABDC
:1002810022AA23A92485318285308312000EFD7FA5
:100291000912068B0531E53170DA053080D6AD21C2
:1002A1007F0112068BE521B40C077D807F0D1207BB
:1002B100907530077531D07F041205D58F2FE53148
:1002C100153170021530E53145306009E52F20E028
:1002D10004552E60E27D807F0D120770E5314530B7
:1002E10070030203927F061205D5EF541B600302CF
:1002F100038FF52CE52F552D30E003752CFFE521FB
:10030100640C60030203927F0A1205D58F2F7F0CC4
:100311001205D5EF5407FD6021E52F24FFFFE434DA
:10032100FFFEEF7803C333CE33CED8F97C002DFF27
:10033100EC3EAB29AA2AA92B800FE52F75F008A462
:10034100FFAB29AA2AA92BE5F08FF012006FE52F48
:100351007003752F01E52FD394124003752F12E41A
:10036100F530F531C3E531952FE530940050227F0A
:10037100091205D5AB26AA27A928853182853083A4
:10038100EF12004D0531E53170DA053080D6752C5C
:10039100FE7D807F0C120790E4FD7F0112068BAF7A
:0103A1002C2F
:0103A2002238
:10077E007F141205D5EF540370077D037F14120703
:01078E0090DA
:01078F002247
:070003007D037F140207706A
:10072400E4F5CAF5CCD2CAEF1FAC0670011E4C60CA
:0B0734000730CFFDC2CF80EFC2CA2209
:030000000203A355
:0C03A300787FE4F6D8FD7581540203EA6F
:10000E00BB010CE58229F582E5833AF583E02250A7
:10001E0006E92582F8E622BBFE06E92582F8E222F1
:0D002E00E58229F582E5833AF583E493220B
:10003B00BB010689828A83F0225002F722BBFE01A4
:02004B00F3229E
:10004D00F8BB010DE58229F582E5833AF583E8F0E9
:10005D00225006E92582C8F622BBFE05E92582C895
:02006D00F2227D
:10006F00BB010A89828A83F0E5F0A3F0225006F7DC
:0F007F0009A7F01922BBFE06F3E5F009F31922D9
:10008E00E3F5F009E208B5F06D606B80F3E3F5F08F
:10009E0009E608B5F060605E80F387F009E608B502
:1000AE00F054605280F487F009E208B5F0486046DB
:1000BE0080F488828C8387F009E0A3B5F03860362F
:1000CE0080F488828C8387F009E493A3B5F02760CF
:1000DE002580F388828C83E3F5F009E0A3B5F01652
:1000EE00601480F388828C83E3F5F009E493A3B562
:1000FE00F004600280F20201B9808580E7808E8074
:10010E00D2803C8015806C807E809B80B5808B80F9
:10011E00A1804F8070803A0201C589828A83ECFAF1
:10012E00E493F5F0A3C8C582C8CCC583CCE493A3F1
:10013E00C8C582C8CCC583CCB5F070606E80E1892D
:10014E00828A83E493F5F0A3E208B5F05E605C80EA
:10015E00F289828A83E0F5F0A3E608B5F04D604B94
:10016E0080F389828A83E0F5F0A3E208B5F03C6063
:10017E003A80F389828A83E493F5F0A3E608B5F01A
:10018E002A602880F2805389828A83ECFAE493F500
:10019E00F0A3C8C582C8CCC583CCE0A3C8C582C8AD
:1001AE00CCC583CCB5F004600280E27FFFB5F002CF
:1001BE000F2240027F012289828A83ECFAE0F5F059
:1001CE00A3C8C582C8CCC583CCE0A3C8C582C8CCA1
:1001DE00C583CCB5F0D560D380E389828A83ECFAEF
:1001EE00E0F5F0A3C8C582C8CCC583CCE493A3C800
:1001FE00C582C8CCC583CCB5F0B160AF80E288F0C3
:10020E00ED2402B4040050A3F582EB2402B40400E2
:0B021E005099232345822390010773B1
:1003AF000207A6E493A3F8E493A34003F68001F2B7
:1003BF0008DFF48029E493A3F85407240CC8C3334F
:1003CF00C4540F4420C8834004F456800146F6DF1E
:1003DF00E4800B01020408102040809006FFE47EA9
:1003EF00019360BCA3FF543F30E509541FFEE49313
:1003FF00A360010ECF54C025E060A840B8E493A3DA
:10040F00FAE493A3F8E493A3C8C582C8CAC583CA04
:10041F00F0A3C8C582C8CAC583CADFE9DEE780BEBC
:0107230000D5
:00000001FF
